:100000000C94B13818951895189518951895189559
:100010001895189518951895189518951895189578
:100020001895189518951895189518951895189568
:100030001895189518951895189518951895189558
:100040000C94CC0A189518950C94B40A1895189528
:100050001895189518951895189518951895189538
:100060001895189518951895189518951895189528
:1000700018951895189518950C94710A1895189557
:100080001895189518951895189518950000000062
:10009000000000D400E500F60008011A012C013E22
:1000A0000150016201740185019701A801B901CADB
:1000B00001DA01EA01F901090214022002CEFFD897
:1000C000FFE2FFECFFF6FF00000A0014001E00280C
:1000D0000032003C00460050005A0064006E007878
:1000E0000082008C00960043616C6C205265616454
:1000F0007900534D532052656164790052494E474F
:10010000004E4F2043415252494552004E4F20412C
:100110004E535745520042555359004F4B004552DC
:10012000524F52002B434F50533A002B434F5053E2
:100130003A20302C302C22002B434F50533A2030A1
:10014000004E4F524D414C20504F57455220444F86
:10015000574E002B435042523A20322C222A002B79
:10016000435042523A002B434F4C50002B44544DC5
:10017000463A002B43504D533A002B434D47523AD9
:10018000002B434D54493A002B434C49503A00410F
:10019000540D002B4350494E3A002B4350494E3AE0
:1001A000205245414459002B4350494E3A204E4F6E
:1001B00054205245414459002B4350494E3A204E59
:1001C0004F5420494E5345525445440041542657FC
:1001D0000D0041542B444445543D310D0041542BF6
:1001E0004950523D3131353230300D0041542B43AE
:1001F0004F50533F0D0041544C330D0041544D318D
:100200000D0041542B434C564C3D38300D004154A9
:100210002B435042533D22534D220D004154410D7A
:100220000A004154480D0041542B434D49433D3091
:100230002C370D0041542B43495552433D310D009D
:100240004154443E313B0D004154443E343B0D008B
:100250004154443E353B0D004154443E363B0D0075
:100260004154443E373B0D004154443E383B0D0061
:1002700041542B434F4C503D310D0041542B434CC6
:1002800049503D310D0041542B435042573D312CD4
:10029000222B3739303030303030303030222C3172
:1002A00032392C224D4153544552220D0041542BDA
:1002B000435042573D322C222A312A312A312A31E9
:1002C000323334222C3132392C225041524F4C22BD
:1002D0000D0041542B435042573D332C222A3030DD
:1002E000303031312A2A2A2A222C3132392C224329
:1002F0004F4E464947220D0041542B435042573D33
:10030000342C222A222C3132392C224E554D424592
:100310005231220D0041542B435042573D352C227F
:100320002A222C3132392C224E554D42455232224E
:100330000D0041542B435042573D362C222A222C8B
:100340003132392C224E554D42455233220D004157
:10035000542B435042573D372C222A222C3132391C
:100360002C224E554D42455234220D0041542B4310
:100370005042573D382C222A222C3132392C224E21
:10038000554D42455235220D0041542B43504257A2
:100390003D25642C222573222C3132392C222573E1
:1003A000220D0041542B435042523D320D00415426
:1003B0002B435042523D330D0041542B4350425287
:1003C0003D310D0041542B435042523D340D00410C
:1003D000542B435042523D350D0041542B43504263
:1003E000523D360D0041542B435042523D370D00D3
:1003F00041542B435042523D380D0041542B434D44
:1004000047523D0041542B434D47443D312C340D60
:100410000041542B43504D533D22534D220D00417A
:10042000542B434E4D493D322C310D0041542B434A
:100430004D47463D310D0041542B435343533D221C
:1004400055435332220D0041542B435343533D2215
:1004500047534D220D0041542B43534D503D3137EE
:100460002C3136372C302C32350D0041542B435370
:100470004D503D31372C3136372C302C32340D0075
:1004800041542B434D47533D22002A313100524500
:100490004C4531204F4E0072656C6531206F6E0007
:1004A0002A31300052454C4531204F464600726596
:1004B0006C6531206F6666002A32310052454C452A
:1004C00032204F4E0072656C6532206F6E002A320A
:1004D000300052454C4532204F46460072656C65EF
:1004E00032206F6666002A33310052454C45332076
:1004F0004F4E0072656C6533206F6E002A333000FA
:1005000052454C4533204F46460072656C6533209A
:100510006F6666002A34310052454C4534204F4EF8
:100520000072656C6534206F6E002A3430005245CD
:100530004C4534204F46460072656C6534206F662A
:1005400066002A35310052454C4535204F4E007229
:10055000656C6535206F6E002A35300052454C457C
:1005600035204F46460072656C6535206F66660023
:100570002A36310052454C4536204F4E0072656C8C
:100580006536206F6E002A36300052454C453620C5
:100590004F46460072656C6536206F6666002A37E6
:1005A000310052454C4537204F4E0072656C65371F
:1005B000206F6E002A37300052454C4537204F4699
:1005C000460072656C6537206F6666002A38310018
:1005D0004449414C204F4E006469616C206F6E00AD
:1005E0002A3830004449414C204F46460064696136
:1005F0006C206F6666002A393100534543204F4E08
:1006000000736563206F6E002A3930005345432024
:100610004F464600736563206F6666002A383231A4
:10062000005445524D204F4E007465726D206F6E20
:10063000002A383230005445524D204F464600744F
:1006400065726D206F6666002A3632002A363300E6
:100650002A3634002A3635002A3636002A36370044
:100660002A303000535441545553007374617475EB
:1006700073005345540073657400485953006879FA
:1006800073004D4153544552006D6173746572009F
:100690004E554D42455231006E756D6265723100A6
:1006A0004E554D42455232006E756D626572320094
:1006B0004E554D42455233006E756D626572330082
:1006C0004E554D42455234006E756D626572340070
:1006D0004E554D42455235006E756D62657235005E
:1006E000434F4E46494700636F6E6669670050414D
:1006F000524F4C007061726F6C005245534554006C
:100700005245535441525400D0E5EBE52025642076
:10071000E2EAEBFEF7E5EDEE2E00D0E5EBE5202575
:100720006420E2FBEAEBFEF7E5EDEE2E00CAEEED0B
:10073000F2F0EEEBFC20E2EAEBFEF7E5ED2E00CA6C
:10074000EEEDF2F0EEEBFC20E2FBEAEBFEF7E5ED7E
:100750002E00D2E5F0ECEEF0E5E3F3EBFFF2EEF085
:1007600020E2FBEAEBFEF7E5ED2E00D2E5F0ECEE41
:10077000F0E5E3F3EBFFF2EEF020E2EAEBFEF7E563
:10078000ED2E00D2E5F0ECEEF0E5E3F3EBFFF2EE58
:10079000F020E2FBEAEBFEF7E5ED20E220EDE0F1F0
:1007A000F2F0EEE9EAE0F52053494D00CEF8E8E139
:1007B000EAE020E220EAEEECE0EDE4E52E00DFF7EF
:1007C000E5E9EAE0204D415354455220F3F1EFE5CD
:1007D000F8EDEE20E8E7ECE5EDE5EDE02E00DFF7E3
:1007E000E5E9EAE0204E554D424552256420F3F1FB
:1007F000EFE5F8EDEE20E8E7ECE5EDE5EDE02E00C5
:10080000DFF7E5E9EAE020434F4E46494720F3F1A0
:10081000EFE5F8EDEE20E8E7ECE5EDE5EDE02E00A4
:10082000DFF7E5E9EAE0205041524F4C20F3F1EFC9
:10083000E5F8EDEE20E8E7ECE5EDE5EDE02E00CDA6
:10084000E0F1F2F0EEE9EAE820F1E1F0EEF8E5EDB2
:10085000FB2E00D0E5E6E8EC20EEF5F0E0EDFB2025
:10086000E2EAEBFEF7E5ED00D0E5E6E8EC20EEF598
:10087000F0E0EDFB20E2FBEAEBFEF7E5ED00D3F163
:10088000F2E0E2EAE020256420B0D12E00C3E8F1D6
:10089000F2E5F0E5E7E8F120256420B0432E0054AE
:1008A000656D703D2564B0432C205573743D2564FF
:1008B000B0432C20487973743D2564B0432E2052F8
:1008C000656C65313D25642C2052656C65323D2593
:1008D000642C2052656C65333D2564003031323321
:1008E0003435363738394142434445460030313299
:1008F0003334353637383961626364656600286E93
:10090000756C6C20706F696E74657229003F3F3F93
:1009100000002020202020202020202828282828EF
:1009200020202020202020202020202020202020C7
:10093000202088101010101010101010101010101F
:10094000101004040404040404040404101010101F
:1009500010101041414141414101010101010101DA
:10096000010101010101010101010101011010104A
:1009700010101042424242424202020202020202AD
:10098000020202020202020202020202021010101D
:100990001020000200F5090800E609E809EA09EC60
:1009A00009EE09F009F209F40900000A00220A0A16
:1009B000000F0A110A130A150A170A190A1B0A1D41
:1009C0000A1F0A210A00000100420A0900310A3305
:1009D0000A350A370A390A3B0A3D0A3F0A410A002A
:1009E0000000E50E09003F0E4A0E600E6B0E8C0EE5
:1009F000970EB80EC30EE30E000071111C00110F0C
:100A00001C0F3D0F480F690F740F950FA00FC10FFA
:100A1000CC0FED0FF80F1910241045105010711065
:100A20007B109D10BE10C910EA10F510161122118E
:100A300043114F116F110000891310009C11A81170
:100A4000DA110E122F123612381244128C12AD1215
:100A5000B912E01201132D136113871300003C1526
:100A60001300B013BC13DC13E8130814141434146B
:100A7000401460146C148C149814B814C414E41446
:100A8000F01410151C153B15000039170F006215E6
:100A90009515AF15D015DC15FD150F16301670160F
:100AA0008316BC16EA160B171717371700017518AF
:100AB0007D1701891701AA1701C21707E31701FF64
:100AC000170120180126180142180647180153186B
:100AD000017318FB00003B2B09004F2AAA2AE72AC2
:100AE0000A2B0D2B182B232B2E2B392B0001E43333
:100AF000E33345B83302AB331123330BE832013C07
:100B00003301B83301B63301AB33023C3305D53280
:100B100001163301233303F132022333031F33FB66
:100B20000001BF37BE3745933702863711FD360BBC
:100B3000C136011737019337019137018637021704
:100B40003705AE3601F03601FD3603C93602FD36F3
:100B500003F936FB0E94083CC801D90144245524FE
:100B6000652C660C6608762C48EE53E060E070E079
:100B70008C019D010E9425394016510662067306BC
:100B80006CF4A89502E317E001501040E9F700C0AB
:100B9000000001E0400E00E0501EE2CFE8E00C94BF
:100BA000193C0E940C3C80E090E0A92FAA0FAA0BF0
:100BB000BA2F80179107A207B30754F4A89542E310
:100BC00057E041505040E9F700C000000196EDCFDA
:100BD000E4E00C941D3CBE9AA29AA39AA49AA59A0A
:100BE00007E007BB00E50DB90091610008600093C4
:100BF000610000916100006100936100D49AD79A6E
:100C000000916400046000936400899AD29ABC9AAF
:100C1000BD9A00916400016000936400D79A00E0DF
:100C200000BF07E003BF08EB02BF00E001BF01E027
:100C300007BF00E000937D0000E00BB908E90AB9A6
:100C400006E00093950000E0009390000FE509B9DD
:100C500000E000939B0008E900939A0006E00093EF
:100C60009D0000E00093980003E00093990001ECE0
:100C70000FBD09E00EBDC49A0FE101BD0FE001BD3B
:100C8000789408950FB9779BFECF08950FEF0FB9B1
:100C9000779BFECF0FB108950E94073CC801D90190
:100CA0002A013B01C49803E0EDDF8C019D01022F76
:100CB000132F20E030E0E6DF8C01012F10E0E2DFAF
:100CC0008C01E0DF82019301280139014FEF440ECE
:100CD0004FEF541E4FEF641E4FEF741E012B022B7B
:100CE000032B49F0A895D2DF802E8ABC0DEB00C003
:100CF0000A95E9F7E7CFC49AE9E00C94183C40E381
:100D000050E160E070E003EB14EB21E030E0C4DF81
:100D1000089540EF5EE260E070E009EC1DEE23E034
:100D200030E0BADF08954CEB5DE060E070E003E096
:100D300012E621E030E0B0DF089540EF52E160E0DC
:100D400070E007E01CE023E030E0A6DF089540E219
:100D500054E160E070E008EF1EE123E030E09CDF4A
:100D6000089544E952E160E070E00EE61FE421E0FE
:100D700030E092DF089544E159E160E070E00AE379
:100D800017E423E030E088DF089548E852E160E0AE
:100D900070E003EC14E121E030E07EDF089548E9E3
:100DA00052E160E070E00CE417E221E030E074DF33
:100DB000089548E855E160E070E005EE19E321E0B0
:100DC00030E06ADF089540E455E360E070E005EC50
:100DD00011E624E030E060DF08954CE053E160E08C
:100DE00070E002E211EF24E030E056DF089548E6BB
:100DF00055E160E070E005E415E725E030E04CDF08
:100E0000089548E356E160E070E006E017E924E069
:100E100030E042DF089540EA50E160E070E006E033
:100E20001CE925E030E038DF089540EA50E160E059
:100E300070E00CE319E920E030E02EDF089548E58A
:100E400051E160E070E00EEA1AE825E030E024DFCE
:100E5000089548EB5CE060E070E00BE01FE322E007
:100E600030E01ADF089548EE5AE060E070E00EE9E5
:100E700012EC20E030E010DF08954EEE56E060E026
:100E800070E001EA18EC24E030E006DF089544E564
:100E90005FE060E070E004E71AE420E030E0FCDEB0
:100EA000089548E05AE060E070E00AEB1AE021E0C3
:100EB00030E0F2DE089540E15EE060E070E006E3DD
:100EC0001CEB23E030E0E8DE08954AEB58E060E0F8
:100ED00070E00BE713EB23E030E0DEDE089548EA34
:100EE0005DE060E070E000EC1DE723E030E0D4DE80
:100EF000089548EC54E160E070E00CE710E625E06E
:100F000030E0CADE089548EA55E160E070E001EFA4
:100F100019E225E030E0C0DE089540E05FE060E0E7
:100F200070E00AEF1FED25E030E0B6DE089540ECFA
:100F300050E460E070E005E810E622E030E0ACDE6E
:100F4000089540EA51E160E070E00AEC10E720E02B
:100F500030E0A2DE089540E455E160E070E009E78A
:100F600015EF20E030E098DE089540E055E160E0C4
:100F700070E008E710EE20E030E08EDE089540E6F5
:100F800052E160E070E001EC1EED24E030E084DE30
:100F9000089540E057E160E070E009EC19E520E0D9
:100FA00030E07ADE089540E254E160E070E009E16B
:100FB00013E323E030E070DE089540E857E160E09D
:100FC00070E00DEA1DE026E030E066DE089540E6C0
:100FD00054E160E070E00AE11FE923E030E05CDE0C
:100FE000089540E05AE160E070E009EF15EC25E07B
:100FF00030E052DE089540EC58E160E070E00DED25
:1010000019EA20E030E048DE089540EF52E160E068
:1010100070E007E81DEC20E030E03EDE089540E39C
:101020005FE060E070E000E91FEC24E030E034DED7
:10103000089540E15BE060E070E008EB12EE23E031
:1010400030E02ADE089540EC54E160E070E004EC0A
:101050001BE422E030E020DE089540E758E160E044
:1010600070E007E41AEC23E030E016DE089540EB70
:1010700053E160E070E009E61BE823E030E00CDEBD
:10108000089540E559E160E070E008EA1CEA25E0D7
:1010900030E002DE089540ED56E160E070E00BE6DE
:1010A00012E820E030E0F8DD089540E45CE060E024
:1010B00070E00AEB1CE124E030E0EEDD089540ED45
:1010C00052E160E070E000EC1FE621E030E0E4DD9A
:1010D000089540E052E160E070E00BE71EE425E097
:1010E00030E0DADD089540E952E160E070E000E6CA
:1010F00017E125E030E0D0DD089540E75DE160E0F4
:1011000070E00FE410E623E030E0C6DD089540EF24
:1011100054E260E070E000E010E020E030E0BCDD90
:10112000089540EA5BE060E070E00CE012E026E049
:1011300030E0B2DD08954FE75DE160E070E003ED7F
:1011400014E52CE030E0A8DD089540E853E160E0CC
:1011500070E003E814EF2DE030E09EDD089548E5EF
:101160005FE060E070E00AEE13E82EE030E094DD2E
:10117000089543E35FE060E070E002EC1CED2EE0D8
:1011800030E08ADD08954BE85EE160E070E005E262
:101190001CED2FE030E080DD08954FE358E160E082
:1011A00070E00DEE1FE021E130E076DD0895202FA4
:1011B000022F006407B907E10A95F1F70000369A9B
:1011C000349BFECF349A04B115B108955D9BFECFD8
:1011D0000CB90895BA93AA93D8010C91002321F079
:1011E0000C910AD01196F9CF0AE010E020E030E02F
:1011F000D8DCA991B991089510919B00212F25FF6A
:10120000FBCF00939C0008959A938A93C801FC0138
:101210000491002329F0FC010491EEDF0196F7CF41
:101220000AE010E020E030E0BCDC8991999108955B
:10123000AD01D801FD01DF01119600810232D1F725
:101240000C91023239F00C91F901008311962F5F55
:101250003F4FF6CF00E0F9010083DA0108950E94C4
:10126000083CA8014E3D00E0500718F40CE91FEFC0
:1012700080C0433002E0500718F008EE13E079C058
:101280008FEF9FEF01968C01C801000F111FF8012D
:10129000ED56FF4F0591149131970417150790F300
:1012A000082F092B09F001978C01000F111FF8017D
:1012B000E354FF4F059114913197212F220F220BF8
:1012C000322F0E94D239280139018C01000F111FE1
:1012D000F801E154FF4F059014903197212C220C16
:1012E0002208322C8C01000F111FF801E354FF4F2C
:1012F000059114913197212F220F220B322F001AC2
:10130000110A220A330A8C01000F111FF801ED5651
:10131000FF4F059114913197401B510B8A0120E03A
:1013200030E0A001B1010E942539AC01440F551FE6
:10133000FA01EB56FF4F459154913197BC01660F6E
:10134000771FFB01ED56FF4F659174913197461B56
:10135000570B652F660F660B762F0E9470390E941F
:10136000D239A201B3010E942F3A0E94DD39A801AF
:101370008A01E8E00C94193C9A938A93C801082FDB
:10138000092B09F4CEDE99233AF4B9DC0FEF1FEFF5
:10139000AC010E94EB38C801843600E090074CF0A5
:1013A00084DE8456904004E610E020E030E00E94A5
:1013B000D105843100E090072CF14AE050E08C0127
:1013C0000E941139E2E9F9E00C94BF3B1EDE0DC02A
:1013D00026DE0BC02EDE09C036DE07C03EDE05C0AD
:1013E00046DE03C04EDE01C056DE04E610E020E01B
:1013F00030E00E94D1054AE050E08C010E94113992
:10140000CA0126C08A3000E0900714F1843100E060
:101410009007F4F48C01EAEAF9E00C94BF3B91DD0B
:1014200011C099DD0FC0A1DD0DC0A9DD0BC0B1DD7C
:1014300009C0B9DD07C0C1DD05C0C9DD03C0D1DD0C
:1014400001C0D9DD44E650E08C010E941139C80189
:101450008A3000E09007B4F48C01E6ECF9E00C94DB
:10146000BF3BF7DC0FC0FFDC0DC007DD0BC00FDD9D
:1014700009C017DD07C01FDD05C027DD03C0CBDCB9
:1014800001C0D3DC8991999108959A938A93C801F8
:10149000992332F40FEF1FEFAC010E94EB38C80123
:1014A0004AE050E08C010E941139CA01813000E00D
:1014B000900719F40E94C50611C0823000E0900721
:1014C00041F0833000E0900721F0843000E0900785
:1014D00019F40E94CF0602C00E94D9068991999101
:1014E0000895FA93EA935A934A933A932A931A9354
:1014F0000A935FB700919B00202F00919C00302F32
:10150000022F0C71002331F50091E3071091E407DD
:10151000F801EF51FA4F3083E3EEF7E000811181DB
:101520000F5F1F4F00831183E5EEF7E0008111810B
:101530000F5F1F4F008311830091E3071091E407B1
:10154000003042E0140731F400E010E00093E307BC
:101550001093E4075FBF099119912991399149913D
:101560005991E991F99118953A932A931A930A930C
:101570003FB70BB1102F0CB1202F012F0C7100239E
:1015800029F420938A0A01E000938B0A3FBF099156
:101590001991299139911895FA93EA934A933A93BC
:1015A0002A931A930A934FB708EB02BFECE9FAE0CB
:1015B0000081118122813381012B022B032B71F0D9
:1015C000ECE9FAE000811181228133810150104061
:1015D0002040304000831183228333830091350AF9
:1015E0001091360A012B41F0E5E3FAE00081118108
:1015F0000150104000831183EBECFAE0008111816F
:1016000022813381012B022B032B71F0EBECFAE0EA
:1016100000811181228133810150104020403040EF
:1016200000831183228333834FBF0991199129913C
:1016300039914991E991F991189500E02091E507D8
:101640003091E607232B39F12091E1073091E20731
:10165000F901EF51FA4F1081012FE5EEF7E02081FB
:1016600031812150304020833183E1EEF7E0208149
:1016700031812F5F3F4F208331832091E1073091EB
:10168000E207203012E0310731F420E030E020930F
:10169000E1073093E20708950E940C3C90E086E059
:1016A00000912E0A002309F073C10091E507109103
:1016B000E607012B09F46CC1C0DF902F9D3009F0C3
:1016C0004EC101E000932E0A00E020912D0A30E087
:1016D000F901E951F84F008300E000932D0A0091D1
:1016E000E707002351F042E050E02FE335E007EE3A
:1016F00017E00E94ED3C012B19F400E000932E0A44
:101700000091E7070B3209F0E2C006E010E0E3E9E0
:10171000F1E0A7EEB7E00E940A3D012B39F50CE09D
:1017200010E0EAE9F1E0A7EEB7E00E940A3D012BE4
:1017300019F401E00093380A03E110E0E8EBF1E06E
:10174000A7EEB7E00E940A3D012B51F000E110E046
:10175000E7EAF1E0A7EEB7E00E940A3D012B11F4A1
:1017600001E019D100E000932E0A09C146E050E0E3
:101770002BE435E007EE17E00E94ED3C012B89F4E5
:101780004CE050E022E435E007EE17E00E94ED3C2B
:10179000012B19F401E000933D0A00E000932E0AAA
:1017A000EEC006E010E0ECE6F1E0A7EEB7E00E9444
:1017B0000A3D012B09F048C00091960A0133E9F473
:1017C000082F10E0F801E951F84F0081003398F03C
:1017D000082F10E0F801E951F84F00810A3358F45E
:1017E000082F10E0F801E951F84F008110E0005394
:1017F0001040C2DD02C00E948D070CED15E020E014
:1018000030E0ECE9FAE00083118322833383082F70
:1018100010E0F801E951F84F20810091340A10E0FE
:10182000F801E15DF54F20830091340A03950093A0
:10183000340A0091340A053019F400E00093340AA8
:1018400000E000932E0A9BC006E010E0E1E8F1E022
:10185000A7EEB7E00E940A3D012B89F40091370AF8
:10186000002349F401E00093370A27EE37E007EE42
:1018700018E00E94CE3C00E000932E0A80C006E0F3
:1018800010E0E8E8F1E0A7EEB7E00E940A3D012B86
:1018900009F075C027E53AE007EE17E0C9DC00E77C
:1018A0001AE00E94D93CA80127E53AE000E71AE0D7
:1018B0000E94ED3C012B21F401E00093890A03C052
:1018C00000E00093890A00E000932E0A58C004E06B
:1018D00010E0ECEFF0E0A7EEB7E00E940A3D012B2C
:1018E00059F40091AA05002339F001E00093390A68
:1018F00000E000932E0A43C00AE010E0E7EEF0E0BB
:10190000A7EEB7E00E940A3D012B39F401E00093F5
:101910003A0A00E000932E0A32C009E010E0E2EF3C
:10192000F0E0A7EEB7E00E940A3D012B39F401E098
:1019300000933B0A00E000932E0A21C001E110E071
:10194000E1E4F1E0A7EEB7E00E940A3D012BB9F413
:1019500001E000933C0A00E000932E0A10C0992396
:1019600071F09A3061F000912D0A10E0F801E95110
:10197000F84F908300912D0A039500932D0A009152
:101980002D0A0F3F09F08CCE00E000932D0A88CE7F
:10199000E4E00C941D3C8A93802FA895082F0050FA
:1019A000E1F30A9519F00A95C1F3F7CF01E10EDCD6
:1019B00001E30CDC00E20ADC0CE211E020E030E0A4
:1019C0000E94D10500E102DC00E300DC01E2FEDB65
:1019D0000CE211E020E030E00E94D105DECF04E609
:1019E00010E020E030E00E94D10500E000933C0AC6
:1019F00000E000933A0A00E00093380A00E0009308
:101A00003B0A0091650001600093650003E010E06F
:101A100020E030E00E94AA05009165000E7F00934F
:101A2000650008950E940A3C40E050E00E94CD38D5
:101A3000013011F4D4DF05C001E040E050E00E9425
:101A4000D93800E000932E0A442480E0552490E029
:101A500000ED17E00093350A1093360A552009F07F
:101A6000FBC0A895082F0050B9F00A9541F10A95DE
:101A700089F10A9509F451C00A9509F450C006503D
:101A800009F470C00A9509F478C00A9509F4A1C058
:101A90000A9509F4C2C0C3C000912E0A002319F0B0
:101AA00000E000932E0A00913A0A002309F4B7C01F
:101AB0000091380A002309F4B2C08395B0C00DED3F
:101AC00011E0A2DB839508EC10E00093350A109337
:101AD000360AA5C000912E0A002309F4A0C002E036
:101AE00010E0EBE1F1E0A7EEB7E00E940A3D012B28
:101AF00011F483950EC00EE111E00E94E33CEEE18B
:101B0000F1E0A7EEB7E00E940A3D012B11F48A959F
:101B1000939500E000932E0A82C08AE080C0009175
:101B20002E0A002309F47BC002E010E0EBE1F1E0B3
:101B3000A7EEB7E00E940A3D012B11F48AE00EC027
:101B40000EE111E00E94E33CEEE1F1E0A7EEB7E028
:101B50000E940A3D012B11F48A95939500E00093B1
:101B60002E0A5DC00CEE11E04FDB839508EC10E00F
:101B70000093350A1093360A52C000912E0A0023B2
:101B800009F44DC006E010E0E4E2F1E0A7EEB7E0B2
:101B90000E940A3D012BC9F40CE010E0EBE2F1E0F9
:101BA000A7EEB7E00E940A3D012B19F444244394A8
:101BB0000BC008E010E0E8E3F1E0A7EEB7E00E9418
:101BC0000A3D012B09F44424839500E000932E0A7A
:101BD00026C000912E0A002311F102E010E0EBE193
:101BE000F1E0A7EEB7E00E940A3D012B29F401E0E5
:101BF000401611F483950DC08AE001E010E020E06A
:101C000030E00E94AA0508EC10E00093350A10931A
:101C1000360A00E000932E0A02C055245394009126
:101C20002E0A002309F438DD00913C0A002329F034
:101C300000E000933C0A80E0D2DE0091350A10916A
:101C4000360A012B21F45524539402E006C09B3040
:101C500008F404CF01E001C000E0E6E00C941B3C76
:101C60000E940B3C442480E090E0B9DE442009F05F
:101C7000C6C0A895082FE0EEF9E00C94BB3B0FE836
:101C800011E0C2DA839504EF11E00093350A109356
:101C9000360A9BC000912E0A002309F496C002E088
:101CA00010E0EBE1F1E0A7EEB7E00E940A3D012B66
:101CB00011F4839501C08A9500E000932E0A85C037
:101CC0000DED11E0A1DA839508EC10E00093350AE0
:101CD0001093360A7AC000912E0A002309F475C0C9
:101CE00002E010E0EBE1F1E0A7EEB7E00E940A3D70
:101CF000012B11F483950CC005E010E0EEE1F1E05A
:101D0000A7EEB7E00E940A3D012B11F48A95939546
:101D100000E000932E0A59C004E312E075DA8395BF
:101D200008EC10E00093350A1093360A4EC000917B
:101D30002E0A002309F449C002E010E0EBE1F1E0D3
:101D4000A7EEB7E00E940A3D012B11F483950CC069
:101D500005E010E0EEE1F1E0A7EEB7E00E940A3DF9
:101D6000012B11F48A95939500E000932E0A2DC063
:101D70000CEC11E049DA839508EC10E00093350A89
:101D80001093360A22C000912E0A0023F1F002E0DF
:101D900010E0EBE1F1E0A7EEB7E00E940A3D012B75
:101DA00011F483950CC005E010E0EEE1F1E0A7EE40
:101DB000B7E00E940A3D012B11F48A95939500E04B
:101DC00000932E0A02C04424439400912E0A00235B
:101DD00009F462DC00913C0A002311F080E0FFDD91
:101DE0000091350A1091360A012B21F444244394C2
:101DF00002E006C09B3008F439CF01E001C000E0EA
:101E0000E5E00C941C3C0E940B3C80E0442490E0F4
:101E1000442009F07AC2A895082FE8EFF9E00C9465
:101E2000BB3B06EF11E0F0D9839508EC10E000937E
:101E3000350A1093360A55C200912E0A002309F480
:101E400050C202E010E0EBE1F1E0A7EEB7E00E9443
:101E50000A3D012B11F483950CC005E010E0EEE182
:101E6000F1E0A7EEB7E00E940A3D012B11F48A953C
:101E7000939500E000932E0A34C20CEF11E0C4D910
:101E8000839508EC10E00093350A1093360A29C2B6
:101E900000912E0A002309F424C202E010E0EBE1D5
:101EA000F1E0A7EEB7E00E940A3D012B11F4839503
:101EB0000CC005E010E0EEE1F1E0A7EEB7E00E9413
:101EC0000A3D012B11F48A95939500E000932E0AA8
:101ED00008C202E012E098D9839508EC10E0009364
:101EE000350A1093360AFDC100912E0A002309F429
:101EF000F8C102E010E0EBE1F1E0A7EEB7E00E94EC
:101F00000A3D012B11F483950CC005E010E0EEE1D1
:101F1000F1E0A7EEB7E00E940A3D012B11F48A958B
:101F2000939500E000932E0ADCC107E212E06CD921
:101F3000839508EC10E00093350A1093360AD1C15E
:101F400000912E0A002309F4CCC102E010E0EBE17D
:101F5000F1E0A7EEB7E00E940A3D012B11F4839552
:101F60000CC005E010E0EEE1F1E0A7EEB7E00E9462
:101F70000A3D012B11F48A95939500E000932E0AF7
:101F8000B0C107E414E040D9839508EC10E0009359
:101F9000350A1093360AA5C100912E0A002309F4D0
:101FA000A0C102E010E0EBE1F1E0A7EEB7E00E9493
:101FB0000A3D012B11F483950CC005E010E0EEE121
:101FC000F1E0A7EEB7E00E940A3D012B11F48A95DB
:101FD000939500E000932E0A84C10EE012E014D91C
:101FE000839508EC10E00093350A1093360A79C106
:101FF00000912E0A002309F474C102E010E0EBE125
:10200000F1E0A7EEB7E00E940A3D012B11F48395A1
:102010000CC005E010E0EEE1F1E0A7EEB7E00E94B1
:102020000A3D012B11F48A95939500E000932E0A46
:1020300058C100E712E0E8D8839508EC10E000935F
:10204000350A1093360A4DC100912E0A002309F477
:1020500048C102E010E0EBE1F1E0A7EEB7E00E943A
:102060000A3D012B11F483950CC005E010E0EEE170
:10207000F1E0A7EEB7E00E940A3D012B11F48A952A
:10208000939500E000932E0A2CC104E014E0BCD824
:10209000839508EC10E00093350A1093360A21C1AD
:1020A00000912E0A002309F41CC102E010E0EBE1CC
:1020B000F1E0A7EEB7E00E940A3D012B11F48395F1
:1020C0000CC005E010E0EEE1F1E0A7EEB7E00E9401
:1020D0000A3D012B11F48A95939500E000932E0A96
:1020E00000C101E114E090D883950CE211E0009367
:1020F000350A1093360A00912E0A002309F4F1C024
:1021000006E010E0E3E7F1E0A7EEB7E00E940A3D49
:10211000012B29F400E000932E0A8395E2C005E02C
:1021200010E0EEE1F1E0A7EEB7E00E940A3D012BDE
:1021300009F0D7C08A959395D4C000912E0A002348
:1021400009F4CFC002E010E0EBE1F1E0A7EEB7E068
:102150000E940A3D012B11F483950CC005E010E0AC
:10216000EEE1F1E0A7EEB7E00E940A3D012B11F489
:102170008250939500E000932E0AB3C00CE214E065
:1021800043D8839508EC10E00093350A1093360A83
:10219000A8C000912E0A002309F4A3C002E010E0B9
:1021A000EBE1F1E0A7EEB7E00E940A3D012B11F44C
:1021B00083950CC005E010E0EEE1F1E0A7EEB7E09A
:1021C0000E940A3D012B11F48A95939500E000933B
:1021D0002E0A87C002ED11E017D8839508EC10E0B5
:1021E0000093350A1093360A7CC000912E0A002312
:1021F00009F477C002E010E0EBE1F1E0A7EEB7E010
:102200000E940A3D012B11F483950CC005E010E0FB
:10221000EEE1F1E0A7EEB7E00E940A3D012B11F4D8
:102220008A95939500E000932E0A5BC00FE114E0BD
:102230000E940409839508EC10E00093350A10937E
:10224000360A4FC000912E0A002309F44AC002E06A
:1022500010E0EBE1F1E0A7EEB7E00E940A3D012BB0
:1022600011F483950CC005E010E0EEE1F1E0A7EE7B
:10227000B7E00E940A3D012B11F48250939500E0D3
:1022800000932E0A2EC00BE712E00E9404098395EA
:1022900008EC10E00093350A1093360A22C0009132
:1022A0002E0A0023F1F002E010E0EBE1F1E0A7EEEE
:1022B000B7E00E940A3D012B11F483950CC005E0A4
:1022C00010E0EEE1F1E0A7EEB7E00E940A3D012B3D
:1022D00011F48250939500E000932E0A02C044242A
:1022E000439400912E0A002309F4D6D90091350AAF
:1022F0001091360A012B21F44424439402E006C0D5
:102300009B3008F485CD01E001C000E0E5E00C94CD
:102310001C3C0E94093C80E090E055246624442443
:1023200000E000932E0A662009F006C2A895082F47
:10233000E6E3FAE00C94BB3B03EA13E00E940409D5
:10234000839508EC10E00093350A1093360AE1C13A
:1023500000912E0A002309F4DCC103E511E00E947C
:10236000E33CE3E5F1E0A7EEB7E00E940A3D012B74
:1023700019F4552483951AC002E010E0EBE1F1E076
:10238000A7EEB7E00E940A3D012B21F45524539497
:102390008D5F0CC005E010E0EEE1F1E0A7EEB7E0E4
:1023A0000E940A3D012B11F48A95939500E0009359
:1023B0002E0AAFC10091F8070093980A0091F9071F
:1023C0000093990A0091FA0700939A0A0091FB077B
:1023D00000939B0A0091F20700530093A20A009118
:1023E000F40700530093A10A0091F60700530093ED
:1023F000A30A0091A20A00560093A20A0091A10A22
:102400000E94E60808EC10E020E030E00E94D105D0
:102410000091A20A0E94E60883957BC100912E0AD2
:10242000002309F476C102E010E0EBE1F1E0A7EE51
:10243000B7E00E940A3D012B11F483950CC005E022
:1024400010E0EEE1F1E0A7EEB7E00E940A3D012BBB
:1024500011F48250939500E000932E0A5AC101E0D6
:10246000501611F4839555C18E5F53C169D1839580
:102470000EEA13E00E940409839508EC10E0009333
:10248000350A1093360A45C100912E0A002309F43B
:1024900040C106E010E0EFE5F1E0A7EEB7E00E94F2
:1024A0000A3D012B11F50091F20700938D0A00916E
:1024B000F30700938E0A0091F40700938F0A0091AE
:1024C000F5070093900A0091F6070093910A009196
:1024D000F7070093920A0091FA070093950A00917A
:1024E000FB070093960A83950CC005E010E0EEE12F
:1024F000F1E0A7EEB7E00E940A3D012B11F48A95A6
:10250000939500E000932E0A0DEF17E40150104060
:10251000E9F700C00000FDC000912E0A002309F475
:10252000F8C002E010E0EBE1F1E0A7EEB7E00E94B6
:102530000A3D012B11F483950CC005E010E0EEE19B
:10254000F1E0A7EEB7E00E940A3D012B11F48250A2
:10255000939500E000932E0ADCC009EB13E00E9483
:10256000040983950CE211E00093350A1093360AB2
:10257000D0C000912E0A002309F4CBC006E010E081
:10258000EFE5F1E0A7EEB7E00E940A3D012B41F430
:1025900020E73AE007EE17E00E94180983950CC087
:1025A00005E010E0EEE1F1E0A7EEB7E00E940A3DA1
:1025B000012B11F48A95939500E000932E0AA9C08F
:1025C00000912E0A002309F4A4C002E010E0EBE120
:1025D000F1E0A7EEB7E00E940A3D012B11F48395CC
:1025E0000CC005E010E0EEE1F1E0A7EEB7E00E94DC
:1025F0000A3D012B11F48250939500E000932E0ABE
:1026000088C0042D005049F00A9561F00A9579F0D0
:102610000A9591F00A95A9F018C004EC13E00E9405
:10262000040913C00FEC13E00E9404090EC00AED68
:1026300013E00E94040909C005EE13E00E9404099A
:1026400004C000EF13E00E94040983950CE211E03E
:102650000093350A1093360A5CC000912E0A0023BD
:1026600009F457C006E010E0EFE5F1E0A7EEB7E0AF
:102670000E940A3D012BA9F40091F1070A3241F4AE
:1026800020E0042D10E0F801EF54F54F208307C03F
:1026900021E0042D10E0F801EF54F54F20838395DD
:1026A0000CC002E010E0EEE1F1E0A7EEB7E00E941E
:1026B0000A3D012B11F48A95939500E000932E0AB0
:1026C00028C000912E0A002321F102E010E0EBE186
:1026D000F1E0A7EEB7E00E940A3D012B41F404E0CF
:1026E000401611F483950FC0439482500CC005E04E
:1026F00010E0EEE1F1E0A7EEB7E00E940A3D012B09
:1027000011F48250939500E000932E0A02C06624D3
:10271000639400912E0A002311F40E944C0B009147
:10272000350A1091360A012B11F402E006C09B30E5
:1027300008F4F9CD01E001C000E0E7E00C941A3C98
:102740000E940C3C80E090E000E000932E0A992368
:1027500009F0A1C1A895082FECE5FAE00C94BB3B69
:1027600007E414E00E940409839504E610E0009356
:10277000350A1093360A80C100912E0A002309F40D
:102780007BC102E010E0EBE1F1E0A7EEB7E00E94D0
:102790000A3D012B11F483950BC005E010E0EEE13A
:1027A000F1E0A7EEB7E00E940A3D012B09F48A95FB
:1027B00000E000932E0A60C106E812E00E940409BE
:1027C000839504E610E00093350A1093360A54C14D
:1027D00000912E0A002309F44FC102E010E0EBE162
:1027E000F1E0A7EEB7E00E940A3D012B11F48395BA
:1027F0000BC005E010E0EEE1F1E0A7EEB7E00E94CB
:102800000A3D012B09F48A9500E000932E0A34C199
:102810000DEA12E00E940409839504E610E000939B
:10282000350A1093360A28C100912E0A002309F4B4
:1028300023C102E010E0EBE1F1E0A7EEB7E00E9477
:102840000A3D012B11F483950BC005E010E0EEE189
:10285000F1E0A7EEB7E00E940A3D012B09F48A954A
:1028600000E000932E0A08C102ED12E00E94040964
:10287000839504E610E00093350A1093360AFCC0F5
:1028800000912E0A002309F4F7C002E010E0EBE10A
:10289000F1E0A7EEB7E00E940A3D012B11F4839509
:1028A0000BC005E010E0EEE1F1E0A7EEB7E00E941A
:1028B0000A3D012B09F48A9500E000932E0ADCC042
:1028C00008EF12E00E940409839504E610E00093EB
:1028D000350A1093360AD0C000912E0A002309F45D
:1028E000CBC002E010E0EBE1F1E0A7EEB7E00E9420
:1028F0000A3D012B11F483950BC005E010E0EEE1D9
:10290000F1E0A7EEB7E00E940A3D012B09F48A9599
:1029100000E000932E0AB0C005E113E00E94040914
:10292000839504E610E00093350A1093360AA4C09C
:1029300000912E0A002309F49FC002E010E0EBE1B1
:10294000F1E0A7EEB7E00E940A3D012B11F4839558
:102950000BC005E010E0EEE1F1E0A7EEB7E00E9469
:102960000A3D012B09F48A9500E000932E0A84C0E9
:1029700002E313E00E940409839504E610E000934B
:10298000350A1093360A78C000912E0A002309F404
:1029900073C002E010E0EBE1F1E0A7EEB7E00E94C7
:1029A0000A3D012B11F483950BC005E010E0EEE128
:1029B000F1E0A7EEB7E00E940A3D012B09F48A95E9
:1029C00000E000932E0A58C00FE413E00E940409AF
:1029D000839504E610E00093350A1093360A4CC044
:1029E00000912E0A002309F447C002E010E0EBE159
:1029F000F1E0A7EEB7E00E940A3D012B11F48395A8
:102A00000BC005E010E0EEE1F1E0A7EEB7E00E94B8
:102A10000A3D012B09F48A9500E000932E0A2CC090
:102A20000CE613E00E940409839504E610E000938D
:102A3000350A1093360A20C000912E0A0023E1F0D7
:102A400002E010E0EBE1F1E0A7EEB7E00E940A3D02
:102A5000012B11F483950BC005E010E0EEE1F1E0ED
:102A6000A7EEB7E00E940A3D012B09F48A9500E029
:102A700000932E0A01C091E000912E0A002311F468
:102A80000E944C0B0091350A1091360A012B09F077
:102A90005ECE02E001C000E0E4E00C941D3C0E9428
:102AA000063C2597902E2901812E772480E090E026
:102AB0006624772009F0EFC1A895082FE8E8FAE02E
:102AC0000C94BB3B092D005059F00A9571F00A9502
:102AD00089F00A95A1F00A95B9F00A95D1F01DC0C8
:102AE00009EB13E00E94040918C004EC13E00E94F3
:102AF000040913C00FEC13E00E9404090EC00AED94
:102B000013E00E94040909C005EE13E00E940409C5
:102B100004C000EF13E00E9404090CE211E00093EE
:102B2000350A1093360A8395A4C100912E0A00231A
:102B300009F49FC106E010E0EFE5F1E0A7EEB7E091
:102B40000E940A3D012B39F42EE33AE007EE17E02C
:102B50000E941809839500E000932E0A8AC1009113
:102B60002E0A002309F485C102E010E0EBE1F1E058
:102B7000A7EEB7E00E940A3D012B11F483950CC02B
:102B800005E010E0EEE1F1E0A7EEB7E00E940A3DBB
:102B9000012B11F48250939500E000932E0A69C135
:102BA00007E314E00E940409839508EC10E0009309
:102BB000350A1093360A5DC100912E0A002309F4EC
:102BC00058C102E010E0EBE1F1E0A7EEB7E00E94AF
:102BD0000A3D012B11F483950CC005E010E0EEE1F5
:102BE000F1E0A7EEB7E00E940A3D012B11F48A95AF
:102BF000939500E000932E0A3CC1882029F006E559
:102C000014E00E94040904C00BE614E00E940409C9
:102C1000839508EC10E00093350A1093360A009172
:102C20002E0A002309F425C102E010E0EBE1F1E0F7
:102C3000A7EEB7E00E940A3D012B11F483950CC06A
:102C400005E010E0EEE1F1E0A7EEB7E00E940A3DFA
:102C5000012B11F48A95939500E000932E0A09C187
:102C600000E814E00E940409A0E0B0E0FD01E25C8D
:102C7000F54F0081002301F100E30E94FC0800E30E
:102C80000E94FC08B0E0FD01E25CF54F00810B32D0
:102C900039F402E30E94FC0802E40E94FC080AC026
:102CA00003E30E94FC08B0E0FD01E25CF54F008107
:102CB0000E94FC08A395D9CF02E20E94FC080DE017
:102CC0000E94FC080AE010E020E030E00E94D105FC
:102CD000839508EC10E00093350A1093360AC9C0BA
:102CE00042E050E022E535E007EE17E00E94ED3CBF
:102CF000012B09F0BEC0839500E000932D0A00E08F
:102D000000932E0AB6C0F2010081002309F1F201FE
:102D10000081003C38F0F201008110E0005B1C4FA4
:102D2000D80104C0F201008110E0D801BA93AA933F
:102D300025E535E08E010E5F1F4F0E94803C2296F4
:102D40008E010E94EA0801E0400E00E0501EDBCF39
:102D50000AE10E94FC080AE010E020E030E00E9456
:102D6000D105839500E717E10093350A1093360AE1
:102D700000E000932E0A7DC000912E0A002309F482
:102D800078C046E050E02BE535E007EE17E00E9402
:102D9000ED3C012B09F4839505E010E0EEE1F1E054
:102DA000A7EEB7E00E940A3D012B51F04BE050E046
:102DB00022E635E007EE17E00E94ED3C012B31F4EE
:102DC00000E000932E0A662463948CE000E00093F8
:102DD0002E0A4FC000912E0A002309F44AC002E0D7
:102DE00010E0EBE1F1E0A7EEB7E00E940A3D012B15
:102DF00011F483950CC005E010E0EEE1F1E0A7EEE0
:102E0000B7E00E940A3D012B11F48A95939500E0EA
:102E100000932E0A2EC007E414E00E940409839553
:102E200008EC10E00093350A1093360A22C0009196
:102E30002E0A0023F1F002E010E0EBE1F1E0A7EE52
:102E4000B7E00E940A3D012B11F483950CC005E008
:102E500010E0EEE1F1E0A7EEB7E00E940A3D012BA1
:102E600011F48A95939500E000932E0A02C077240E
:102E7000739400912E0A002311F40E944C0B0091D0
:102E8000350A1091360A012B09F4FFCF9B3008F464
:102E900010CE01E005C0662011F001E001C000E0A5
:102EA0002596EAE00C94173C0E94073C80E08824B9
:102EB00090E0662407EE18E02801F201008100236B
:102EC00049F0F2012F0101E0400E00E0501E0081A8
:102ED0000C3299F7F2010081702E01E3701618F0A0
:102EE0000AE3701608F084E1882009F011C1A89562
:102EF000082FECEAFAE00C94BB3B07E414E00E94D4
:102F00000409839508EC10E00093350A1093360A03
:102F1000ECC000912E0A002309F4E7C002E010E0A3
:102F2000EBE1F1E0A7EEB7E00E940A3D012B11F4BE
:102F300083950CC005E010E0EEE1F1E0A7EEB7E00C
:102F40000E940A3D012B11F48A95939500E00093AD
:102F50002E0ACBC00BEF13E00E940409072D0E943C
:102F6000FC080DE00E94FC080AE010E020E030E0E0
:102F70000E94D10583950CE211E00093350A10936D
:102F8000360AB3C000912E0A002309F4AEC006E051
:102F900010E0EAE7F1E0A7EEB7E00E940A3D012B5E
:102FA00011F48AE00CC005E010E0EEE1F1E0A7EEDC
:102FB000B7E00E940A3D012B11F48A95939500E039
:102FC00000932E0A92C000912E0A002309F48DC0AE
:102FD0000091E707003521F00091E707003749F439
:102FE00027EE37E007EE18E00E94CE3C662463949B
:102FF00001C0662400E000932E0A839576C00091FC
:103000002E0A002309F471C002E010E0EBE1F1E0C8
:10301000A7EEB7E00E940A3D012B11F483950CC086
:1030200005E010E0EEE1F1E0A7EEB7E00E940A3D16
:10303000012B11F48250939500E000932E0A55C0A5
:10304000662011F0839551C084E14FC00091980A29
:103050001091E8080117A1F40091990A1091E9086C
:10306000011771F400919A0A1091EA08011741F4CE
:1030700000919B0A1091EB08011711F4839535C05C
:1030800084E133C007EE18E047D084E12EC004E0AD
:1030900014E00E940409839508EC10E00093350ABF
:1030A0001093360A22C000912E0A0023F1F002E0AC
:1030B00010E0EBE1F1E0A7EEB7E00E940A3D012B42
:1030C00011F483950CC005E010E0EEE1F1E0A7EE0D
:1030D000B7E00E940A3D012B11F48A95939500E018
:1030E00000932E0A02C08824839400912E0A0023A4
:1030F00011F40E944C0B0091350A1091360A012BF5
:1031000011F402E006C09B3008F4EECE01E001C0ED
:1031100000E0E9E00C94183C0E940B3C2797C801A2
:103120008C010E94D93CA8019C012B5F3F4F8C0170
:103130000E94283C2CEA37E007EE19E00E94A93CE7
:1031400003E010E0EAE8F4E0DC010E940A3D012B14
:1031500091F008E010E0EEE8F4E0DC010E940A3DA6
:10316000012B49F008E010E0E7E9F4E0DC010E94FF
:103170000A3D012BB9F400916200086000936200DF
:1031800001E10E94E60801E00093A40A01E010E0DA
:103190001A930A9328E037E007EE19E00E94A93C51
:1031A0002296E4C603E010E0E0EAF4E0DC010E94CD
:1031B0000A3D012B91F009E010E0E4EAF4E0DC01C3
:1031C0000E940A3D012B49F009E010E0EEEAF4E02C
:1031D000DC010E940A3D012BB9F400916200077FD7
:1031E0000093620000E10E94E60800E00093A40A58
:1031F00001E010E01A930A932AE137E007EE19E0A4
:103200000E94A93C2296B2C603E010E0E8EBF4E08D
:10321000DC010E940A3D012B91F008E010E0ECEB8C
:10322000F4E0DC010E940A3D012B49F008E010E0C7
:10323000E5ECF4E0DC010E940A3D012B99F50091D8
:10324000620000610093620001E20E94E60801E072
:103250000093A50A02E010E01A930A9328E037E0F1
:1032600007EE19E00E94A93C22960091920A0133D0
:1032700009F07CC60091970A002309F077C644E064
:1032800050E00E94CD38002309F070C601E044E010
:1032900050E00E94D938E2E5F7E0A7EEB9E00E94DD
:1032A000C43C64C603E010E0EEECF4E0DC010E94F4
:1032B0000A3D012B91F009E010E0E2EDF4E0DC01C1
:1032C0000E940A3D012B49F009E010E0ECEDF4E02A
:1032D000DC010E940A3D012B99F5009162000F7EEE
:1032E0000093620000E20E94E60800E00093A50A55
:1032F00002E010E01A930A932AE137E007EE19E0A2
:103300000E94A93C22960091920A013309F02EC630
:103310000091970A002309F029C644E050E00E947A
:10332000CD38002309F022C601E044E050E00E94BD
:10333000D938E2E5F7E0A7EEB9E00E94C43C16C632
:1033400003E010E0E6EEF4E0DC010E940A3D012B10
:1033500091F008E010E0EAEEF4E0DC010E940A3DA2
:10336000012B49F008E010E0E3EFF4E0DC010E94FB
:103370000A3D012B99F4DC9A01E30E94E60801E082
:103380000093A60A03E010E01A930A9328E037E0BE
:1033900007EE19E00E94A93C2296E8C503E010E080
:1033A000ECEFF4E0DC010E940A3D012B91F009E012
:1033B00010E0E0E0F5E0DC010E940A3D012B49F05D
:1033C00009E010E0EAE0F5E0DC010E940A3D012B93
:1033D00099F4DC9800E30E94E60800E00093A60A56
:1033E00003E010E01A930A932AE137E007EE19E0B0
:1033F0000E94A93C2296BAC503E010E0E4E1F5E0A2
:10340000DC010E940A3D012B91F008E010E0E8E1A8
:10341000F5E0DC010E940A3D012B49F008E010E0D4
:10342000E1E2F5E0DC010E940A3D012B81F4DF9A24
:1034300001E00093A70A04E010E01A930A9328E041
:1034400037E007EE19E00E94A93C22968FC503E001
:1034500010E0EAE2F5E0DC010E940A3D012B91F068
:1034600009E010E0EEE2F5E0DC010E940A3D012BEC
:1034700049F009E010E0E8E3F5E0DC010E940A3DD4
:10348000012B81F4DF9800E00093A70A04E010E02C
:103490001A930A932AE137E007EE19E00E94A93C4B
:1034A000229664C503E010E0E2E4F5E0DC010E944E
:1034B0000A3D012B91F008E010E0E6E4F5E0DC01C4
:1034C0000E940A3D012B49F008E010E0EFE4F5E02E
:1034D000DC010E940A3D012BA1F40091650004600B
:1034E0000093650001E00093A80A05E010E01A933C
:1034F0000A9328E037E007EE19E00E94A93C2296E3
:1035000035C503E010E0E8E5F5E0DC010E940A3D86
:10351000012B91F009E010E0ECE5F5E0DC010E9400
:103520000A3D012B49F009E010E0E6E6F5E0DC0198
:103530000E940A3D012BA1F4009165000B7F0093CE
:10354000650000E00093A80A05E010E01A930A93D2
:103550002AE137E007EE19E00E94A93C229606C551
:1035600003E010E0E0E7F5E0DC010E940A3D012BFA
:1035700091F008E010E0E4E7F5E0DC010E940A3D8C
:10358000012B49F008E010E0EDE7F5E0DC010E94D6
:103590000A3D012B81F4919A01E00093A90A06E00B
:1035A00010E01A930A9328E037E007EE19E00E9432
:1035B000A93C2296DBC403E010E0E6E8F5E0DC017C
:1035C0000E940A3D012B91F009E010E0EAE8F5E0E5
:1035D000DC010E940A3D012B49F009E010E0E4E91A
:1035E000F5E0DC010E940A3D012B81F4919800E096
:1035F0000093A90A06E010E01A930A932AE137E043
:1036000007EE19E00E94A93C2296B0C403E010E046
:10361000EEE9F5E0DC010E940A3D012B91F008E0A3
:1036200010E0E2EAF5E0DC010E940A3D012B49F0DE
:1036300008E010E0EBEAF5E0DC010E940A3D012B16
:1036400081F4DA9A01E00093AA0A07E010E01A93E5
:103650000A9328E037E007EE19E00E94A93C229681
:1036600085C403E010E0E4EBF5E0DC010E940A3DD4
:10367000012B91F009E010E0E8EBF5E0DC010E949D
:103680000A3D012B49F009E010E0E2ECF5E0DC0135
:103690000E940A3D012B81F4DA9800E00093AA0A07
:1036A00007E010E01A930A932AE137E007EE19E0E9
:1036B0000E94A93C22965AC403E010E0ECECF5E02D
:1036C000DC010E940A3D012B91F007E010E0E0EDE3
:1036D000F5E0DC010E940A3D012B49F007E010E013
:1036E000E8EDF5E0DC010E940A3D012B61F400E009
:1036F00042E050E00E94D9382DE237E007EE19E0B1
:103700000E94A93C33C403E010E0E0EEF5E0DC01E8
:103710000E940A3D012B91F008E010E0E4EEF5E094
:10372000DC010E940A3D012B49F008E010E0EDEEBB
:10373000F5E0DC010E940A3D012B61F401E042E06A
:1037400050E00E94D9382FE337E007EE19E00E94DD
:10375000A93C0CC404E010E0ECE1F6E0DC010E94BE
:103760000A3D012B91F007E010E0E1E2F6E0DC0118
:103770000E940A3D012B49F007E010E0E9E2F6E083
:10378000DC010E940A3D012BE9F40091920A013309
:1037900091F444E050E00E94CD38013029F400E07B
:1037A00044E050E00E94D9382BE637E007EE19E0FC
:1037B0000E94A93CDBC323E837E007EE19E00E9432
:1037C000A93CD4C304E010E0E1E3F6E0DC010E9490
:1037D0000A3D012B91F008E010E0E6E3F6E0DC01A1
:1037E0000E940A3D012B49F008E010E0EFE3F6E00B
:1037F000DC010E940A3D012BE9F40091920A013399
:1038000091F444E050E00E94CD38002329F401E017
:1038100044E050E00E94D93822E537E007EE19E095
:103820000E94A93CA3C323E837E007EE19E00E94F9
:10383000A93C9CC303E010E0E6EFF5E0DC010E9448
:103840000A3D012B91F006E010E0EAEFF5E0DC0123
:103850000E940A3D012B49F006E010E0E1E0F6E0AD
:10386000DC010E940A3D012B69F401E90E94E6088F
:1038700001E00093AC0A23E538E007EE19E00E946E
:10388000A93C74C303E010E0E8E0F6E0DC010E942C
:103890000A3D012B91F007E010E0ECE0F6E0DC01DE
:1038A0000E940A3D012B49F007E010E0E4E1F6E058
:1038B000DC010E940A3D012B69F400E90E94E60840
:1038C00000E00093AC0A28E638E007EE19E00E9419
:1038D000A93C4CC303E010E0E0E6F6E0DC010E9406
:1038E0000A3D012B91F006E010E0E4E6F6E0DC0191
:1038F0000E940A3D012B49F006E010E0EBE6F6E0FD
:10390000DC010E940A3D012B49F50091A60A10E056
:103910001A930A930091A50A10E01A930A93009152
:10392000A40A10E01A930A930091BF0A10E01A93B8
:103930000A9341E050E00E94CD3810E01A930A93B8
:103940000091D10A1091D20A1A930A932FE938E014
:1039500007EE19E00E94A93C2C9608C3FC010081E7
:10396000033299F003E010E0E2E7F6E0DC010E94A8
:103970000A3D012B51F003E010E0E6E7F6E0DC0140
:103980000E940A3D012B09F06AC0ECE8F0E00591C5
:1039900015912591349133970B831C832D833E839E
:1039A000B0E04424A0E0FC010081033211F4A1E066
:1039B00001C0A3E000E010E0033020E0120754F55E
:1039C0002A2F30E0A801420F531FFC01E40FF51F1E
:1039D00020812033D0F02A2F30E0A801420F531F5E
:1039E000FC01E40FF51F20812A3378F42A2F30E000
:1039F000A801420F531FFC01E40FF51F2081FE01B7
:103A00003396E00FF11F208302C0442443940F5FDC
:103A10001F4FD2CF442009F0A9C28E010D5F1F4F66
:103A20000E947D38B02FB93708F0B8E7B13008F4FC
:103A3000B1E041E050E00B2F0E94D938B093BE0AAC
:103A400041E050E00E94CD3810E01A930A932EE72F
:103A500038E007EE19E00E94A93C229687C2FC01DB
:103A600000810836B9F0FC010081083499F003E0C8
:103A700010E0EAE7F6E0DC010E940A3D012B51F07C
:103A800003E010E0EEE7F6E0DC010E940A3D012BC6
:103A900009F068C0E0E9F0E00591159124913297B2
:103AA000088319832A83B0E04424A0E0FC0100814C
:103AB000083621F0FC010081083411F4A1E001C0B6
:103AC000A3E000E010E0023020E012074CF52A2FBE
:103AD00030E0A801420F531FFC01E40FF51F2081C5
:103AE0002033C8F02A2F30E0A801420F531FFC01F9
:103AF000E40FF51F20812A3370F42A2F30E0A8014B
:103B0000420F531FFC01E40FF51F2081FE01E00F5F
:103B1000F11F208302C0442443940F5F1F4FD3CF73
:103B2000442009F023C28E010E947D38B02FBF319E
:103B300008F0BEE1B23008F4B2E0B093BF0A0091E1
:103B4000BF0A43E050E00E94D9380091BF0A10E05C
:103B50001A930A932DE838E007EE19E00E94A93C79
:103B6000229604C206E010E0E2E8F6E0DC010E94E2
:103B70000A3D012B49F006E010E0E9E8F6E0DC013F
:103B80000E940A3D012BC9F48C010E94D93CA80176
:103B90009C012A5F3F4F8C010E94283C4EE655E075
:103BA00020E08C01EDD1002309F0E0C12EEB37E0DD
:103BB00007EE19E00E94A93CD9C107E010E0E0E956
:103BC000F6E0DC010E940A3D012B49F007E010E01D
:103BD000E8E9F6E0DC010E940A3D012BF1F48C01DA
:103BE0000E94D93CA8019C01295F3F4F8C010E9493
:103BF000283C45E755E021E08C01C2D1002309F0C3
:103C0000B5C101E010E01A930A932EED37E007EEFC
:103C100019E00E94A93C2296A9C107E010E0E0EA61
:103C2000F6E0DC010E940A3D012B49F007E010E0BC
:103C3000E8EAF6E0DC010E940A3D012BF1F48C0178
:103C40000E94D93CA8019C01295F3F4F8C010E9432
:103C5000283C4DE755E021E08C0192D1002309F08A
:103C600085C102E010E01A930A932EED37E007EECB
:103C700019E00E94A93C229679C107E010E0E0EB30
:103C8000F6E0DC010E940A3D012B49F007E010E05C
:103C9000E8EBF6E0DC010E940A3D012BF1F48C0117
:103CA0000E94D93CA8019C01295F3F4F8C010E94D2
:103CB000283C45E855E021E08C0162D1002309F061
:103CC00055C103E010E01A930A932EED37E007EE9A
:103CD00019E00E94A93C229649C107E010E0E0ECFF
:103CE000F6E0DC010E940A3D012B49F007E010E0FC
:103CF000E8ECF6E0DC010E940A3D012BF1F48C01B6
:103D00000E94D93CA8019C01295F3F4F8C010E9471
:103D1000283C4DE855E021E08C0132D1002309F028
:103D200025C104E010E01A930A932EED37E007EE68
:103D300019E00E94A93C229619C107E010E0E0EDCD
:103D4000F6E0DC010E940A3D012B49F007E010E09B
:103D5000E8EDF6E0DC010E940A3D012BF1F48C0154
:103D60000E94D93CA8019C01295F3F4F8C010E9411
:103D7000283C45E955E021E08C0102D1002309F0FF
:103D8000F5C005E010E01A930A932EED37E007EE38
:103D900019E00E94A93C2296E9C006E010E0E0EE9E
:103DA000F6E0DC010E940A3D012B49F006E010E03C
:103DB000E7EEF6E0DC010E940A3D012BC9F58C011B
:103DC0000E94D93CA8019C012A5F3F4F8C010E94B0
:103DD000283C4DE955E022E08C01D2D0002309F0C7
:103DE000C5C0FC01018100938D0AFC010281009392
:103DF0008E0AFC01038100938F0AFC010481009369
:103E0000900AFC0105810093910AFC010681009350
:103E1000920AFC0101850093950AFC01028500933A
:103E2000960A20E038E007EE19E00E94A93C9EC007
:103E300005E010E0EEEEF6E0DC010E940A3D012B09
:103E400051F005E010E0E4EFF6E0DC010E940A3DED
:103E5000012B09F04BC08C010E94D93CA8019C01A8
:103E60002B5F3F4F8C010E94283C44EA55E023E041
:103E70008C0186D0002309F079C0FC0107810093F2
:103E8000980AFC0100850093990AFC0101850093C2
:103E90009A0AFC01028500939B0AFC0101810053F0
:103EA0000093A20AFC01038100530093A10AFC01C4
:103EB000058100530093A30A0091A20A00560093C3
:103EC000A20A0091A10A0E94E60808EC10E020E096
:103ED00030E00E94D1050091A20A0E94E60820E28B
:103EE00038E007EE19E00E94A93C40C005E010E070
:103EF000EAEFF6E0DC010E940A3D012B69F509E1D9
:103F000041E050E00E94D93841E050E00E94CD38B5
:103F10000093BE0A02E043E050E00E94D93843E03B
:103F200050E00E94CD380093BF0A00E042E050E02C
:103F30000E94D93800E044E050E00E94D9380E9445
:103F4000A013002399F40E9489112FE338E007EEB3
:103F500019E00E94A93C0AC007E010E0E0E0F7E0A9
:103F6000DC010E940A3D012B09F4FFCF11E027EE8E
:103F700039E000E00E944F152796E5E00C941C3CC8
:103F80000E94043CEF976697C801B22E2A01AA242A
:103F900077246624992488240B2D005051F00A952B
:103FA00009F44BC00A9509F4F6C00A9509F46CC1EE
:103FB000DBC1FC0100810023F9F0FC01008100332A
:103FC00040F4FC0100810A3320F0FC0100810B3237
:103FD00081F4FC010081002361F0FC012081FE01DD
:103FE000082D10E0E00FF11F208383946624639472
:103FF00001C066240196DDCF09E1801640F420E07F
:10400000FE01082D10E0E00FF11F208302C000E048
:10401000088F5A924A928E010E5F1F4F1A930A938D
:1040200001E010E01A930A9329E833E08E01015E63
:104030001F4F0E94A93C269697C1FC0100810A32BD
:1040400039F40AE2088300E009836624639430C0EF
:10405000FC0100810023F9F0FC010081003340F4F1
:10406000FC0100810A3320F0FC0100810B3281F455
:10407000FC010081002361F0FC012081FE01082D7C
:1040800010E0E00FF11F208383946624639401C045
:1040900066240196DDCF09E1801640F420E0FE01A0
:1040A000082D10E0E00FF11F208302C000E0088F10
:1040B000F2010681015359F00A95E9F00A9579F168
:1040C0000A9509F440C00A9509F451C04DC15A92AD
:1040D0004A928E010E5F1F4F1A930A9304E010E07C
:1040E0001A930A9329E833E08E01015E1F4F0E9464
:1040F000A93C269639C15A924A928E010E5F1F4FF3
:104100001A930A9305E010E01A930A9329E833E022
:104110008E01015E1F4F0E94A93C269625C15A922E
:104120004A928E010E5F1F4F1A930A9306E010E029
:104130001A930A9329E833E08E01015E1F4F0E9413
:10414000A93C269611C15A924A928E010E5F1F4FCA
:104150001A930A9307E010E01A930A9329E833E0D0
:104160008E01015E1F4F0E94A93C2696FDC05A9207
:104170004A928E010E5F1F4F1A930A9308E010E0D7
:104180001A930A9329E833E08E01015E1F4F0E94C3
:10419000A93C2696E9C000E010E00B3020E01207B1
:1041A000F4F4FC012081203340F4FC0120812A3307
:1041B00020F0FC0120812A3269F4FC0120812223B5
:1041C00049F0FC012081FE01E00FF11F20836624ED
:1041D000639401C0662401960F5F1F4FDECF00E09D
:1041E0000B875A924A928E010E5F1F4F1A930A93C1
:1041F00003E010E01A930A9329E833E08E01015E90
:104200001F4F0E94A93C269608810A32D9F50F81DA
:104210000A32C1F508850A32A9F509850A3231F05A
:104220000985003319F00985013361F50A850A32E1
:1042300019F00A85013331F50981003319F009813C
:10424000013301F50A81003319F00A810133D1F4F9
:104250000B81003319F00B810133A1F40C81003381
:1042600019F00C81013371F40D81003319F00D81C7
:10427000013341F40E81003309F476C00E8101331D
:1042800009F472C0662470C000E010E00B3020E03A
:104290001207F4F4FC012081203340F4FC0120815A
:1042A0002A3320F0FC0120812A3269F4FC012081AC
:1042B000222349F0FC012081FE01E00FF11F208341
:1042C0006624639401C0662401960F5F1F4FDECF02
:1042D00000E00B875A924A928E010E5F1F4F1A938D
:1042E0000A9302E010E01A930A9329E833E08E0162
:1042F000015E1F4F0E94A93C269608810A3299F55B
:104300000A810A3281F50C810A3269F50E810A327E
:1043100051F50981013318F409810A3320F50B8125
:10432000013318F40B810A33F0F40D81013318F4D2
:104330000D810A33C0F40F81003318F40F810A3362
:1043400090F40885003318F408850A3360F4098571
:10435000003318F409850A3330F40A85003320F459
:104360000A850A3308F06624662009F45BC0AA2097
:1043700009F056C0072D005029F00A9581F00A95E2
:1043800091F13AC08E01075E1F4F0E94EA087394B4
:1043900004E610E00093350A1093360A2DC0009110
:1043A0002E0A002349F102E010E0EBE1F1E0980170
:1043B000A7EEB7E089010E940A3D012B11F4739426
:1043C0000EC005E010E0EEE1F1E09801A7EEB7E0E5
:1043D00089010E940A3D012B11F47A94939400E024
:1043E00000932E0A09C0BB2029F49E0100E71AE0C1
:1043F0000E94803CAA24A39400912E0A002311F469
:104400000E944C0B0091350A1091360A012B11F4D1
:1044100002E009C00BE0901608F4A9CF01E003C048
:1044200000E001C001E0EF966696ECE00C94153CCC
:104430000E940B3C80E090E003E0402E0CED15E084
:1044400020E030E0ECE9FAE000831183228333833B
:1044500000E00093340A992309F0D9C0A895082FE9
:104460000050B9F00A95D9F00A9569F10A9509F456
:1044700044C00A9509F44AC00A9509F462C00A9535
:1044800009F486C0045009F486C00A9509F48FC067
:10449000A9C00CE112E00E9404098395A3C0009119
:1044A0002E0A002309F49EC002E010E0EBE1F1E0E7
:1044B000A7EEB7E00E940A3D012B09F4839500E0C6
:1044C00000932E0A8FC00CE211E020E030E00E9441
:1044D000D1050091890A002321F00091950A01334A
:1044E00021F00091950A003321F40E94970786E09D
:1044F00079C00E948D07839575C0442029F000E0A3
:104500000093340A83956EC08AE06CC00091340A2F
:10451000043009F4839500912E0A002309F462C047
:1045200001E011E00E94E33CE1E0F1E0A7EEB7E03A
:104530000E940A3D012B09F491E000E000932E0A4D
:1045400051C044E050E028E93AE00FE21AE00E944E
:10455000ED3C012B91F4839504EF11E020E030E075
:104560000E94D1050E94AF0808EC10E020E030E086
:104570000E94D1050E94B90835C083E04A940CE23C
:1045800011E020E030E00E94D1050E94A5082AC079
:1045900041D091E027C002E212E00E940409839515
:1045A00008EC10E00093350A1093360A1BC0009106
:1045B0002E0A002381F002E010E0EBE1F1E0A7EE2B
:1045C000B7E00E940A3D012B11F491E001C08A95E9
:1045D00000E000932E0A0091350A1091360A012B53
:1045E00009F491E0ECE9FAE0008111812281338144
:1045F000012B022B032B19F48A3008F48AE0009176
:104600002E0A002309F027CF0E944C0B24CFE5E0AF
:104610000C941C3C0E940B3C80E0442493E044201A
:1046200009F08EC0A895082F005061F00A9501F19D
:104630000A9509F453C0085009F453C00A9509F4C7
:1046400056C068C000E00093340A00E000932F0ACF
:1046500000E00093300A93E00CED15E020E030E03C
:10466000ECE9FAE00083118322833383839552C0FF
:1046700000912F0A033261F000912F0A0A3251F49F
:104680000091300A083331F40091310A023311F4F9
:1046900094E009C000912F0A0A3211F493E003C09C
:1046A00000E00093340A0091340A091709F4839555
:1046B00000912E0A002371F101E011E00E94E33C19
:1046C000E1E0F1E0A7EEB7E00E940A3D012B11F412
:1046D0004424439400E000932E0A1CC034D080E0B0
:1046E00019C002E212E00E940409839513C00091F0
:1046F0002E0A002379F002E010E0EBE1F1E0A7EEF2
:10470000B7E00E940A3D012B11F44424439400E0D9
:1047100000932E0A00912E0A002311F40E944C0BE4
:10472000ECE9FAE00081118122813381012B022B17
:10473000032B09F074CF8A3008F071CF8AE06FCF75
:10474000E5E00C941C3C0E940C3C239703E010E035
:10475000EAE8F4E0AFE2BAE00E940A3D012BC1F4BE
:104760000091620008600093620001E10E94E60887
:104770000CE211E020E030E00E94D1050E946F07BA
:104780000E9429070E94790701E00093A40A9DC2B4
:1047900003E010E0E0EAF4E0AFE2BAE00E940A3D94
:1047A000012BC1F400916200077F0093620000E1D9
:1047B0000E94E60804E610E020E030E00E94D10507
:1047C0000E946F070E9429070E94830700E0009360
:1047D000A40A7BC203E010E0E8EBF4E0AFE2BAE049
:1047E0000E940A3D012BA9F500916200006100932F
:1047F000620001E20E94E6080CE211E020E030E0F5
:104800000E94D1050E946F070E9433070E9479071A
:1048100001E00093A50A0091920A013379F4009116
:10482000970A002359F444E050E00E94CD38002359
:1048300029F401E044E050E00E94D9380E94C30806
:104840000CE211E020E030E00E94D1050E947308E4
:104850003CC203E010E0EEECF4E0AFE2BAE00E940C
:104860000A3D012BA9F5009162000F7E00936200C2
:1048700000E20E94E60804E610E020E030E00E943A
:10488000D1050E946F070E9433070E94830700E052
:104890000093A50A0091920A013379F40091970AD6
:1048A000002359F444E050E00E94CD38002329F45D
:1048B00001E044E050E00E94D9380E94C3080CE2B5
:1048C00011E020E030E00E94D1050E947308FDC194
:1048D00003E010E0E6EEF4E0AFE2BAE00E940A3D49
:1048E000012BA1F4DC9A01E30E94E6080CE211E03E
:1048F00020E030E00E94D1050E946F070E943D0732
:104900000E94790701E00093A60ADFC103E010E0EE
:10491000ECEFF4E0AFE2BAE00E940A3D012BA1F413
:10492000DC9800E30E94E60804E610E020E030E0B6
:104930000E94D1050E946F070E943D070E948307D5
:1049400000E00093A60AC1C103E010E0E4E1F5E055
:10495000AFE2BAE00E940A3D012B89F4DF9A0CE233
:1049600011E020E030E00E94D1050E946F070E9414
:1049700047070E94790701E00093A70AA6C103E058
:1049800010E0EAE2F5E0AFE2BAE00E940A3D012B56
:1049900089F4DF980CE211E020E030E00E94D105BC
:1049A0000E946F070E9447070E94830700E0009360
:1049B000A70A8BC103E010E0E2E4F5E0AFE2BAE061
:1049C0000E940A3D012BA9F4009165000460009348
:1049D00065000CE211E020E030E00E94D1050E9469
:1049E0006F070E9451070E94790701E00093A80A0F
:1049F0006CC103E010E0E8E5F5E0AFE2BAE00E9448
:104A00000A3D012BA9F4009165000B7F009365001E
:104A10000CE211E020E030E00E94D1050E946F0717
:104A20000E9451070E94830700E00093A80A4DC12D
:104A300003E010E0E0E7F5E0AFE2BAE00E940A3DF3
:104A4000012B89F4919A0CE211E020E030E00E9401
:104A5000D1050E946F070E945B070E94790701E061
:104A60000093A90A32C103E010E0E6E8F5E0AFE206
:104A7000BAE00E940A3D012B89F491980CE211E002
:104A800020E030E00E94D1050E946F070E945B0782
:104A90000E94830700E00093A90A17C103E010E019
:104AA000EEE9F5E0AFE2BAE00E940A3D012B89F49D
:104AB000DA9A0CE211E020E030E00E94D1050E9479
:104AC0006F070E9465070E94790701E00093AA0A18
:104AD000FCC003E010E0E4EBF5E0AFE2BAE00E94D6
:104AE0000A3D012B89F4DA980CE211E020E030E075
:104AF0000E94D1050E946F070E9465070E948307EC
:104B000000E00093AA0AE1C003E010E0E8E4F6E068
:104B1000AFE2BAE00E940A3D012B31F400E60E94A8
:104B2000E6080E948D07D1C003E010E0ECE4F6E057
:104B3000AFE2BAE00E940A3D012B31F401E60E9487
:104B4000E6080E948D07C1C003E010E0E0E5F6E052
:104B5000AFE2BAE00E940A3D012B31F402E60E9466
:104B6000E6080E948D07B1C003E010E0E4E5F6E03E
:104B7000AFE2BAE00E940A3D012B31F403E60E9445
:104B8000E6080E948D07A1C003E010E0E8E5F6E02A
:104B9000AFE2BAE00E940A3D012B31F404E60E9424
:104BA000E6080E948D0791C003E010E0ECE5F6E016
:104BB000AFE2BAE00E940A3D012B31F405E60E9403
:104BC000E6080E948D0781C003E010E0ECECF5E000
:104BD000AFE2BAE00E940A3D012B81F400E042E01E
:104BE00050E00E94D9380E945F080CE211E020E0FA
:104BF00030E00E94D1050E94690867C003E010E020
:104C0000E0EEF5E0AFE2BAE00E940A3D012B81F44C
:104C100001E042E050E00E94D9380E945F080CE2B7
:104C200011E020E030E00E94D1050E9473084DC0E1
:104C300004E010E0ECE1F6E0AFE2BAE00E940A3DE9
:104C4000012BE9F40091920A0133B1F444E050E001
:104C50000E94CD38013029F400E044E050E00E9489
:104C6000D9380E94C3080CE211E020E030E00E9435
:104C7000D1050E94690829C00E94CD0826C004E021
:104C800010E0E1E3F6E0AFE2BAE00E940A3D012B5A
:104C9000E1F40091920A0133B1F444E050E00E9443
:104CA000CD38002329F401E044E050E00E94D938D7
:104CB0000E94C3080CE211E020E030E00E94D10520
:104CC0000E94730802C00E94CD0803E010E0E6EFE6
:104CD000F5E0AFE2BAE00E940A3D012B09F096C070
:104CE00001E90E94E60801E00093AC0A0091C20AC3
:104CF0001091C30A013020E01207C1F40E9493060C
:104D000008EC10E020E030E00E94D1050E94290765
:104D10000CE211E020E030E00E94D1050E9473080F
:104D200000E911E020E030E00E94D1050091C40AC2
:104D30001091C50A013020E01207C1F40E949306C9
:104D400008EC10E020E030E00E94D1050E9433071B
:104D50000CE211E020E030E00E94D1050E947308CF
:104D600000E911E020E030E00E94D1050091C60A80
:104D70001091C70A013020E01207C1F40E94930687
:104D800008EC10E020E030E00E94D1050E943D07D1
:104D90000CE211E020E030E00E94D1050E9473088F
:104DA00000E911E020E030E00E94D1050091C80A3E
:104DB0001091C90A013020E01207C1F40E94930645
:104DC00008EC10E020E030E00E94D1050E94470787
:104DD0000CE211E020E030E00E94D1050E9473084F
:104DE00000E911E020E030E00E94D10500E911E087
:104DF00020E030E00E94D1050E947D080CE211E025
:104E000020E030E00E94D1050E94690803E010E034
:104E1000E8E0F6E0AFE2BAE00E940A3D012BB9F407
:104E200000E90E94E60800E00093AC0A00E911E006
:104E300020E030E00E94D1050E947D0800E911E0E9
:104E400020E030E00E94D1050E9473084DC203E0CB
:104E500010E0E0E6F6E0AFE2BAE00E940A3D012B86
:104E600009F00DC20091AC0A002381F40E947D0874
:104E700000E911E020E030E00E94D1050E947308B3
:104E800000E911E020E030E00E94D1050091AC0A79
:104E9000013009F090C00E947D0800E911E020E097
:104EA00030E00E94D1050E94690800E911E020E08D
:104EB00030E00E94D1050091C20A1091C30A01306E
:104EC00020E01207C1F40E94930608EC10E020E0F5
:104ED00030E00E94D1050E9429070CE211E020E099
:104EE00030E00E94D1050E94BB0600E911E020E0FD
:104EF00030E00E94D1050091C40A1091C50A01302A
:104F000020E01207C1F40E94930608EC10E020E0B4
:104F100030E00E94D1050E9433070CE211E020E04E
:104F200030E00E94D1050E94BB0600E911E020E0BC
:104F300030E00E94D1050091C60A1091C70A0130E5
:104F400020E01207C1F40E94930608EC10E020E074
:104F500030E00E94D1050E943D070CE211E020E004
:104F600030E00E94D1050E94BB0600E911E020E07C
:104F700030E00E94D1050091C80A1091C90A0130A1
:104F800020E01207C1F40E94930608EC10E020E034
:104F900030E00E94D1050E9447070CE211E020E0BA
:104FA00030E00E94D1050E94BB0600E911E020E03C
:104FB00030E00E94D1050091A40A013091F40E94D2
:104FC0006F070E94290708EC10E020E030E00E9403
:104FD000D1050E94790704EF11E020E030E00E9443
:104FE000D1050091A50A013091F40E946F070E943B
:104FF000330708EC10E020E030E00E94D1050E9469
:10500000790704EF11E020E030E00E94D105009123
:10501000A60A013091F40E946F070E943D0708EC38
:1050200010E020E030E00E94D1050E94790704EFF3
:1050300011E020E030E00E94D1050091A70A013084
:1050400091F40E946F070E94470708EC10E020E0EF
:1050500030E00E94D1050E94790704EF11E020E0C2
:1050600030E00E94D1050091A80A013091F40E941D
:105070006F070E94510708EC10E020E030E00E942A
:10508000D1050E94790704EF11E020E030E00E9492
:10509000D1050091A90A013091F40E946F070E9486
:1050A0005B0708EC10E020E030E00E94D1050E9490
:1050B000790704EF11E020E030E00E94D105009173
:1050C000AA0A013091F40E946F070E94650708EC5C
:1050D00010E020E030E00E94D1050E94790704EF43
:1050E00011E020E030E00E94D1050091910A0133E7
:1050F00099F50091970A002309F50E94010700E93C
:1051000011E020E030E00E94D1050091D10A109119
:10511000D20A0E94BC090CE211E020E030E00E94BB
:10512000D1050091D10A1091D20A0E94450A0CE2E1
:1051300011E020E030E00E94D1050EC008EC10E044
:1051400020E030E00E94D1050E94E30608EC10E068
:1051500020E030E00E94D1050091920A013309F06D
:1051600074C00E94ED0600E911E020E030E00E94EA
:10517000D10541E050E00E94CD3810E00E94BC090A
:105180000CE211E020E030E00E94D10541E050E067
:105190000E94CD3810E00E94450A0CE211E020E0A8
:1051A00030E00E94D1050E949B0800E911E020E058
:1051B00030E00E94D1050091BF0A10E00E94BC09B6
:1051C0000CE211E020E030E00E94D1050091BF0A1E
:1051D00010E00E94450A0CE211E020E030E00E945D
:1051E000D1050E94C30808EC10E020E030E00E94E6
:1051F000D10544E050E00E94CD38013019F40E94FE
:10520000730802C00E94690842E050E00E94CD3855
:10521000002389F408EC10E020E030E00E94D10582
:105220000E945F080CE211E020E030E00E94D1050E
:105230000E9469080AC00E945F080CE211E020E0A9
:1052400030E00E94D1050E9473080091BB0A002340
:1052500029F40E949D060E941F0704C00E949D061B
:105260000E94B1060091AB050023F1F508EC10E0B7
:1052700020E030E00E94D1050E94870835C00091EF
:105280002F0A033289F50091300A08830091310A10
:1052900009830091320A0A838E010E947D38802F93
:1052A000893708F088E741E050E0082F0E94D9389C
:1052B0000E94ED0600E911E020E030E00E94D105F7
:1052C00041E050E00E94CD3810E00E94BC090CE2A1
:1052D00011E020E030E00E94D10541E050E00E9462
:1052E000CD3810E00E94450A0CED15E020E030E0DA
:1052F000ECE9FAE000831183228333832396E4E010
:105300000C941D3C0E94083C602E712E922F80E070
:1053100055240091A30A402E442011F444244394C0
:105320000AE0401610F009E0402E552009F022C294
:10533000A895082F0050C9F00A9509F44CC00A95A9
:1053400009F484C00A9509F497C00A9509F4A5C127
:105350000A9509F4B9C10A9509F4BAC1045009F4CF
:10536000C0C10A9509F4C9C1EFC108EB1BE020E0F8
:1053700030E0ECE9FAE0008311832283338301E01B
:10538000601621F400E412E00E94040902E06016B5
:1053900021F408E412E00E94040903E0601621F4FD
:1053A00000E512E00E94040904E0601621F408E51B
:1053B00012E00E94040905E0601621F400E612E004
:1053C0000E94040906E0601621F408E612E00E943B
:1053D00004098395B9C100912E0A002309F4B4C1D0
:1053E00006E611E00E94E33CE6E6F1E0A7EEB7E056
:1053F0000E940A3D012B09F4839506E111E00E9409
:10540000E33CE6E1F1E0A7EEB7E00E940A3D012BA4
:10541000C1F00CE011E00E94E33CECE0F1E0A7EE0B
:10542000B7E00E940A3D012B61F001E011E00E940B
:10543000E33CE1E0F1E0A7EEB7E00E940A3D012B7A
:1054400009F486E000E000932E0A7EC100912E0A46
:10545000002309F479C102E010E0EBE1F1E0A7EEEE
:10546000B7E00E940A3D012B11F4839501C08AE048
:1054700000E000932E0A68C10CE211E020E030E069
:105480000E94D1050E94F7060CE211E020E030E016
:105490000E94D105072DE4EDFAE00C94BB3B0E947D
:1054A00089060CE211E020E030E00E94D1050E9464
:1054B00093060CE211E020E030E00E94D10591302B
:1054C00019F40E9429070EC0923019F40E94330784
:1054D00009C0933019F40E943D0704C0943011F4C0
:1054E0000E94470702E010E020E030E00E94AA0599
:1054F0000E94F7060CE211E020E030E00E94D105A6
:105500000E9489060CE211E020E030E00E94D10503
:105510000E9493060CE211E020E030E00E94D105E9
:10552000913019F40E9429070EC0923019F40E949C
:10553000330709C0933019F40E943D0704C094302A
:1055400011F40E94470704EF11E020E030E00E94D0
:10555000D10591C00E94ED0600E911E020E030E0A5
:105560000E94D10541E050E00E94CD3810E00E9439
:10557000BC090CE211E020E030E00E94D10541E0DE
:1055800050E00E94CD3810E00E94450A0CE211E084
:1055900020E030E00E94D1050E94010700E911E0FF
:1055A00020E030E00E94D1050091D10A1091D20A8A
:1055B0000E94BC090CE211E020E030E00E94D1051D
:1055C0000091D10A1091D20A0E94450A54C00E944B
:1055D000010700E911E020E030E00E94D1050091D0
:1055E000D10A1091D20A0E94BC090CE211E020E01D
:1055F00030E00E94D1050091D10A1091D20A0E9498
:10560000450A0CE211E020E030E00E94D1050E9442
:105610001F0731C00E94E3062EC00E949D060CE2C7
:1056200011E020E030E00E94D1050E94B10623C0C5
:105630000E949D060CE211E020E030E00E94D105BE
:105640000E94A70618C00E947D080CE211E020E02D
:1056500030E00E94D1050E9469080DC00E947D08BB
:105660000CE211E020E030E00E94D1050E947308B6
:1056700002C00E94870804EF11E020E030E00E94A1
:10568000D10583950CED15E020E030E0ECE9FAE07F
:10569000008311832283338357C000912E0A002395
:1056A00089F001E011E00E94E33CE1E0F1E0A7EEC7
:1056B000B7E00E940A3D012B09F486E000E0009368
:1056C0002E0A42C0839540C00E940A2383953CC0A5
:1056D0004A9401E0401610F080E036C055245394FF
:1056E00033C002E212E00E940409839508EC10E046
:1056F0000093350A1093360A27C000912E0A002322
:10570000D9F002E010E0EBE1F1E0A7EEB7E00E9493
:105710000A3D012B19F4552453940BC005E010E009
:10572000EEE1F1E0A7EEB7E00E940A3D012B09F49B
:105730008A9500E000932E0A0091350A1091360AEE
:10574000012B11F45524539400912E0A002311F4D7
:105750000E944C0BECE9FAE0008111812281338137
:10576000012B022B032B09F0E0CD8A3008F0DDCDB0
:105770008AE0DBCDE8E00C94193C0E940C3C0E94CE
:10578000EB0500E407B907E806B900E10E94E60866
:1057900000E20E94E60800E30E94E60840E050E0D4
:1057A0000E94CD380130C9F009E141E050E00E948B
:1057B000D93800E042E050E00E94D93800E044E0EF
:1057C00050E00E94D93802E043E050E00E94D9380E
:1057D0000E94300E002309F0FFCF0E94120D00231B
:1057E00009F0FFCF0E94030F002309F0FFCF0E94B2
:1057F0008911002309F0FFCF41E050E00E94CD382D
:105800000093BE0A43E050E00E94CD380093BF0AE7
:1058100000E00093AC0A00E00093AA05A89500916F
:105820002E0A002311F40E944C0B00912E0A002333
:10583000E9F00CEF10E00E94E33CECEFF0E0A7EEA3
:10584000B7E00E940A3D012B71F40091A00A039574
:105850000093A00A0091A00A023028F000E0009313
:10586000A00A0E94182200E000932E0A0091370A35
:10587000002359F001E00093AA050E94541700E0AC
:105880000093370A00E00093AA0500E010E00093BF
:10589000C00A1093C10A80E090E0853000E09007D4
:1058A0009CF400E00E94D708E0ECFAE0208131810E
:1058B000200F311F2083318305E010E020E030E02D
:1058C0000E94D1050196E9CF45E050E00091C00A61
:1058D0001091C10A0E94F9380093C00A1093C10ABE
:1058E0000091BB0A002341F50091C00A1091C10A42
:1058F0000C3221E0120700F50CE211E020E030E06C
:105900000E94D10500E00E94D7080093C00A1093BE
:10591000C10A0091C00A1091C10A0C3221E012079D
:1059200058F400918E0A013321F420E014E001E0E4
:10593000E9DC01E00093BB0A0091BB0A002369F196
:105940000091C00A1091C10A0A3521E0120770F0D7
:1059500000918E0A013321F420E015E001E0D2DC51
:1059600000E00093BB0A01E00093AB050091C00A80
:105970001091C10A043021E0120778F40091AB05C0
:10598000002359F000E00093AB0500918E0A01332B
:1059900021F420E018E001E0B5DC05E00E94D70822
:1059A0000093CF0A1093D00A05E00E94D708EFECCD
:1059B000FAE020813181200F311F2083318305E0FF
:1059C0000E94D708EFECFAE020813181200F311FCF
:1059D0002083318305E00E94D708EFECFAE02081B4
:1059E0003181200F311F2083318305E00E94D708C9
:1059F000EFECFAE020813181200F311F20833183C9
:105A000005E00E94D708EFECFAE020813181200FF9
:105A1000311F2083318305E00E94D708EFECFAE0C4
:105A200020813181200F311F2083318305E00E94C6
:105A3000D708EFECFAE020813181200F311F20835D
:105A4000318343E00091CF0A1091D00A0E94F338CD
:105A50000093CF0A1093D00A0091CF0A1091D00A78
:105A6000023D20E0120760F00091CF0A1091D00AA9
:105A7000073222E0120720F40091970A0023E9F090
:105A80000091910A013309F099C00091970A00230F
:105A900009F094C0009162000F7E0093620000E262
:105AA0000E94E60800E00093A50A01E00093970A2F
:105AB00020E013E001E026DC81C00091CF0A1091C4
:105AC000D00A0E942F090093D10A1093D20A41E014
:105AD00050E00E94CD380093BE0A43E050E00E949F
